:020000040800F2
:10000000000400208101000871030008710300084A
:1000100071030008710300087103000871030008F0
:10002000710300087103000871030008F10D000856
:1000300071030008710300087103000871030008D0
:1000400071030008710300087103000871030008C0
:1000500071030008710300087103000871030008B0
:1000600071030008710300087103000871030008A0
:100070007103000871030008710300087103000890
:100080007103000871030008710300087103000880
:100090007103000871030008710300087103000870
:1000A0007103000871030008710300087103000860
:1000B0004111000871030008710300087103000872
:1000C0007103000871030008710300087103000840
:1000D0007103000871030008A1130008C113000890
:1000E0007103000871030008710300087103000820
:1000F0007103000871030008710300087103000810
:1001000071030008710300087103000871030008FF
:1001100071030008710300087103000871030008EF
:1001200071030008710300087103000871030008DF
:1001300071030008710300087103000871030008CF
:1001400071030008710300087103000871030008BF
:1001500071030008710300087103000871030008AF
:10016000000000000000000000000000000000008F
:10017000000000000000000000000000000000007F
:1001800072B6264880F30988022080F31488BFF3F2
:100190006F8F00F07DF801F0A3F921482149224A30
:1001A00091423CBF41F8040BFFF7FABF1F491B4ABD
:1001B00091423CBF41F8040BFFF7FABF1C491D4AAE
:1001C0001D4B9A423EBF51F8040B42F8040BFFF757
:1001D000F8BF002019491A4A91423CBF41F8040B6C
:1001E000FFF7FABF00F06CF800F05AF8154C164D06
:1001F000AC4280F2058054F8041B8847FFF7F8BF33
:1002000001F00EFC114C124DAC4280F2058054F806
:10021000041B8847FFF7F8BF00F04AB80008002029
:100220005555555500000020000400200004002012
:10023000E01B000800080020000800200008002043
:10024000B00B002080010008800100088001000838
:100250008001000800000000000000000000000015
:100260002DE9F04FC1F80CD0C3689D46BDE8F08F72
:10027000002383F311882846A047002000F088FB64
:1002800000F0D6FA00DFFEE70000000000000000EA
:10029000704700BFAFF30080AFF30080AFF3008082
:1002A000704700BFAFF30080AFF30080AFF3008072
:1002B000FEE700BFAFF30080AFF30080AFF3008034
:1002C0002DE9F00141F68027C0F6000707F1800C08
:1002D00000247E68BD683968AE4226D20A4652F8CC
:1002E000048B3346F04343F8048B2818AB42C0F329
:1002F000800014D228B14968043243F8041BAB4291
:100300000DD2104650F8048B194641F8048BD2F8F0
:100310000480021DC3F804800B1DAB42F1D3F343EC
:100320005A1922F0030504357619F9688E4214D261
:100330003346F24343F8044B88188B42C0F38002E3
:100340000BD21AB143F8044B8B4206D2184640F840
:10035000044B5C60031D8B42F8D310376745B8D35C
:10036000BDE8F001704700BFAFF30080AFF300803D
:10037000FEE700BFAFF30080AFF30080AFF3008073
:10038000FEE700BFAFF30080AFF30080AFF3008063
:100390004FF46D4CCEF2000C30B50024CCF8084080
:1003A000DCF80C304FF6FF014FF4407503EA010E04
:1003B000C0F2FA554EEA05004EF6F053CCF80C00A8
:1003C000CEF20003DA684FF4805E42F08075CEF220
:1003D000000EDD60DEF80010202241F00100102345
:1003E0001A4DCEF8000083B08CF81F308CF8222014
:1003F00000F056F900F07CF800F02AFB00F0B0FCA9
:1004000000F0E6FC2846402100F01AFA012245F8E7
:10041000140C027784F3118862B641F6103155F856
:10042000140CC0F6000140F281338161C0F6000374
:1004300005F14C00D821009400F05AFA41F600333F
:10044000C0F60003836103B030BD00BF2C0800205C
:100450002DE9F04340F600044FF08048C2F200045A
:10046000D8F82400E369E18C80B2C1EB000C1A8952
:100470001FFA8CF5AA4283B004F11C051BD8002694
:100480004FF0200918688A18A842E284DF684560A6
:10049000E061DE6020D086F311881869B84789F3DF
:1004A0001188D8F82400E369E18C80B2471A1A89D0
:1004B000BFB2BA42E6D9AB4213D08A18C0EB020CE5
:1004C0001FFA8CF3012B98BF0223191888B203B0CE
:1004D000BDE8F04300F0FCBC019300F0F1FC019B8F
:1004E000D9E703B0BDE8F083AFF30080AFF300803D
:1004F00040F60003C2F2000303F11C014FF0FF308D
:100500000022D96119629884DA847047AFF30080C1
:10051000F8B540F60006C2F2000637464FF08044B8
:10052000D4F824C057F81C4F012998BF0221BC42BF
:1005300005460361C2601FFA8CFC24D0F28C23892B
:10054000C2EB0C000F18BFB2874214DA2468F91A04
:1005500023898FB2BB42F9D32F81B4F808C06068F9
:10056000C7EB0C074FF0FF332C60686005606560D7
:100570002781B384F8BD9F42ECD2BA1890B200F044
:10058000A7FC2389E6E701EB0C0080B2A6F826C0A1
:10059000F56135622C606C602981BDE8F84000F09F
:1005A00087BC00BFAFF30080AFF30080AFF30080E3
:1005B00040F60003C2F20003DA6970B4824211D03F
:1005C000416802681C330A600268516000219A4247
:1005D000C16005D0B0F808C010890CEB000313818E
:1005E00070BC70471168184640F81C1F00248142F7
:1005F0004860D4601DD04FF08044666AD88C15895D
:100600000C89B2B22B19C0EB020C9BB21FFA8CF012
:1006100083420B81E4D91B1A1FFA83FCBCF1010F42
:1006200098BF4FF0020C0CEB020188B270BC00F0D6
:100630004FBC70BC00F044BCAFF30080AFF300804F
:10064000202181F31188037F072B0ED8DFE803F008
:10065000200D0D2408040D08036A9A68511C996046
:1006600090E80C001A6001684B604FF0FF3240F6D2
:1006700000030262816800220277C2F200031B6855
:100680009A688A42FBD259680360416008605860EA
:10069000002080F311887047036A00221A60E4E7A3
:1006A00040F60003C2F2000300221B605B609A6008
:1006B0001B615B61704700BFAFF30080AFF3008048
:1006C00040F60003002281680277C2F200031B6833
:1006D0009A688A42FBD2596803604160086058609A
:1006E000704700BFAFF30080AFF30080AFF300802E
:1006F00040F6000310B4C2F200031A689969146846
:10070000087701201077104663601C609A6110BC66
:10071000FFF7A6BDAFF30080AFF30080AFF300801A
:1007200030B54FF6FF73994287B0054617D040F6B3
:100730000004C2F2000440F24162C0F60002A36964
:1007400001A8FFF7E5FE2846FFF7D2FF049810B195
:1007500001A8FFF72DFFA169086A07B030BD40F678
:100760000004FFF7C5FFC2F20004F4E7AFF3008016
:1007700040F60002C2F2000230B494690346856874
:10078000A06819620021854284BF217711460BD8E9
:100790001977126891688D42FBD950681A605860C9
:1007A0000360536030BC704709688D68A842FBD96C
:1007B0004868216060604C60012104601977184628
:1007C0002146936130BCFFF74BBD00BFAFF3008003
:1007D00040F60000C2F20000816902688B689068F0
:1007E000984294BF00200120704700BFAFF3008003
:1007F00040F60002C2F2000210689169036830B44A
:100800005A608C68012513609061002205770A7791
:1008100000E01B689A68A242FBD85A680B604A60E5
:100820001160596030BCFFF71BBD00BFAFF3008003
:10083000FFF7DEBFAFF30080AFF30080AFF30080BF
:1008400040F60002C2F20002F0B45569002400F143
:100850002806026181602861456100F124070225B4
:10086000C1630121057744778463446381778461A0
:10087000506147628662C662F0BC7047AFF3008089
:100880002DE9F007A1F1240C40F60005C2F20005A5
:1008900000EB0C07D5F814A040F27121C76040F8B6
:1008A0000C30079BC0F600017B6039620026904641
:1008B00000F1240900F12802022101230561C0F89A
:1008C0000880CAF81000C0F814A001774677C0F875
:1008D0003C8086634663837786616861C0F82490B4
:1008E0008262C262BDE8F007704700BFAFF30080CC
:1008F00010B5202482B084F31188049C0094FFF783
:10090000BFFF00210446FFF733FF002383F3118864
:10091000204602B010BD00BFAFF30080AFF30080EF
:1009200008B50146202080F311880820FFF7F8FE63
:10093000002383F3118808BDAFF30080AFF300807C
:1009400038B540F60003C2F200039C69636A04F103
:1009500024059D42206207D01A6818466262FFF79C
:10096000AFFE636A9D42F7D1617F880701BF2269AC
:1009700060690261226908BF50610F20BDE83840FC
:10098000FFF7B6BEAFF30080AFF30080AFF3008097
:10099000202383F31188FFF7D3BF00BFAFF300809C
:1009A000024669B140F6000CC2F2000C4068DCF867
:1009B00018301A605860036004205360FFF7B0BE1F
:1009C0004FF0FF30704700BFAFF30080AFF30080FF
:1009D000026810B49042034607D0146810461C60A9
:1009E0006360116210BCFFF76BBE10BC704700BFA4
:1009F0004FF48051CEF200014B688360704700BF16
:100A00004FF48053CEF2000340F6000230B4816808
:100A10005C68C2F20002136FC568611AC91A013519
:100A2000D0E90423521843F100034468C0E90423C9
:100A30000368A14288BF41609942C560816038BFA8
:100A4000016030BC704700BFAFF30080AFF300809F
:100A500010B540F6000486B00023C2F200044FF047
:100A6000FF328DE80C00684600222367029303934F
:100A70000023CDE90423FFF7BBFF6846FFF7C0FF63
:100A8000029B236706B010BDAFF30080AFF3008078
:100A90000023006040608360704700BFAFF30080B8
:100AA000426B037F0A430A2B42630BD00B2B00D00F
:100AB0007047036A02EA03018B42F9D10022026205
:100AC000FFF7FEBD036A1A42F8D17047AFF300800A
:100AD00070B504680646A0420D460DD0E3682B436E
:100AE000E36015B12269134203D06068A168FFF783
:100AF000D7FF2468A642F1D170BD00BFAFF30080DC
:100B000010B4C361019B8A180024006040608460B7
:100B1000C160816141610261036210BC704700BF26
:100B200008B58269436993420FD0826801328260BE
:100B300003F8011B016943618B4201D3C368436120
:100B40000021FFF745FF002008BD8268002AECD095
:100B50006FF0030008BD00BFAFF30080AFF300806B
:100B600070B5202304460E4683F31188C36903B190
:100B70009847A5682046314635B9FFF711FF002890
:100B8000F7DA85F3118870BDA168A369481EA060DB
:100B900013F8010B2269A361934224BFE368A361A8
:100BA000002181F3118870BDAFF30080AFF30080A6
:100BB0002DE9F04F83B00446019115461F46D0F849
:100BC0001C904FF0200B8BF311884FF00008C246A9
:100BD000B9F1000F01D02046C847A6682046394623
:100BE0004EB9FFF7DDFE0028F7D086F311884046A6
:100BF00003B0BDE8F08FA168A3694A1EA26013F894
:100C0000010B019901F808002269A361934224BFF6
:100C1000E368A3618AF3118808F10108A845E6D0CA
:100C20008BF31188D4E700BFAFF30080AFF30080EF
:100C300010B4C361019B8C18006040608260C16089
:100C4000816141610461036210BC7047AFF30080B1
:100C5000F8B504460D461746202383F31188A6688D
:100C60002046394636B9FFF79BFE0028F7DA86F3AF
:100C70001188F8BDA3686069591EA16000F8015B86
:100C800022696061904228BFE068E36928BF606123
:100C90000BB120469847002080F31188F8BD00BFB3
:100CA0008369426910B59A420FD0816802694C1C71
:100CB000846013F8014B9342836101D3C36883615D
:100CC0000021FFF785FE204610BD81680029ECD089
:100CD0006FF0020010BD00BFAFF30080AFF30080E3
:100CE0002DE9F04F83B004460D4616460193D0F827
:100CF0001C904FF0200B8BF311884FF00008C24678
:100D0000A7682046EFB1A16863694A1EA2602978EE
:100D100003F8011B22696361934224BFE3686361A6
:100D2000B9F1000F00D0C8478AF31188013E08F1DD
:100D300001080ED001358BF31188A7682046002FDB
:100D4000E1D120460199FFF72BFE0028D8D087F388
:100D50001188404603B0BDE8F08F00BFAFF30080BC
:100D6000094942F2000C40F6541240F65013C2F208
:100D7000000C21F00700C2F20002C2F200032CF0C6
:100D80000701106019607047B70B0020AFF30080B7
:100D9000202282F3118840F6541C40F65011C2F212
:100DA000000CC2F20001DCF800200B68073020F0D4
:100DB0000700991A88429ABF1018CCF80000002248
:100DC000002383F311881046704700BFAFF3008003
:100DD00040F65813C2F2000340F691520021C0F6CB
:100DE000000203F110001A609960D960FFF750BE4D
:100DF000EFF30980203080F30988002383F3118802
:100E0000704700BFAFF30080AFF30080AFF3008006
:100E100010B5202181F311884FF46D40CEF200000F
:100E2000436813F4006302D183F3118810BDEFF31C
:100E300009844FF0807344F8043CA4F1200282F34B
:100E40000988FFF7C5FC30B140F28120C0F60000F0
:100E500044F8080C10BD40F28421C0F6000144F8AB
:100E6000081C10BDAFF30080AFF30080AFF300802B
:100E700008B500F0EDF841F66030C0F6000000F073
:100E80009FF900F06DF800F033FBBDE8084000F07A
:100E900007B800BFAFF30080AFF30080AFF300806E
:100EA00000F066B9AFF30080AFF30080AFF30080CD
:100EB0004FF080435863022200201861DA607047C7
:100EC00000224FF08043DA60704700BFAFF300802C
:100ED0004FF0804358637047AFF30080AFF300805A
:100EE0000C30FFF765BE00BFAFF30080AFF30080AA
:100EF0000C304FF6FF73FFF75BBE00BFAFF300800F
:100F00003030FFF7EDBE00BFAFF30080AFF30080DD
:100F100030304FF6FF73FFF7E3BE00BFAFF3008042
:100F20000C30FFF71DBE00BFAFF30080AFF30080B1
:100F30000C304FF6FF71FFF713BE00BFAFF3008018
:100F40003030FFF785BE00BFAFF30080AFF3008005
:100F500030304FF6FF72FFF77BBE00BFAFF300806B
:100F600000F03EBAAFF30080AFF30080AFF3008033
:100F700070B5044641F630302646C0F6000046F80B
:100F8000040B6660012682B00B46154604F10C0086
:100F900004F15401102226720094FFF7B1FD04F110
:100FA000300004F1640110222B460094FFF740FE4C
:100FB00002B070BDAFF30080AFF30080AFF30080EC
:100FC00010B52022044682F3118800F031FA022085
:100FD0002072002383F3118810BD00BFAFF300809F
:100FE00038B5436904460D463BB104F10C0029466F
:100FF000FFF796FD00280BDB38BD04300421FFF716
:1010000067FD04F10C002946FFF78AFD0028F3DA9A
:10101000201D8021BDE83840FFF75ABDAFF30080A6
:1010200030B400F01F050124AC404FF46143CEF210
:10103000000342090901181802F1600580F8001345
:1010400043F8254043F8224030BC7047AFF300809E
:101050004FF4805CC4F2020C4FF0FF330022DCF846
:101060001000CCF81030CCF81020DCF80C00CCF8D4
:101070000C30CCF80C20DCF81C104FF4E04241F0AE
:101080008050CCF81C00DCF81C30C4F2000243F0A5
:101090000061CCF81C10106840F480731360704736
:1010A0004FF48053C4F202031868194640F001025D
:1010B0001A600A684FF480539207C4F20203F8D50D
:1010C0001A68002002F0F901196019465860486852
:1010D0004FF4805310F00C0FC4F20203F7D11868DC
:1010E000194640F480321A600A684FF48053900326
:1010F000C4F20203F8D55A68194642F480305860A9
:101100001A6842F08070186008684FF480538201BA
:10111000C4F20203F8D54FF4005C4FF48032102182
:10112000C4F2020C5A60CCF8001058681A4640F01D
:1011300002015960506800F00C03082BFAD1704787
:101140004FF080431A6910B5920708D500241C613E
:10115000202383F31188FFF77BF984F31188BDE81E
:101160001040FFF755BE00BFAFF30080AFF3008023
:101170004FF4805CC4F2020CDCF81C304FF40050D9
:1011800043F0010230B4CEF20400CCF81C204468D5
:101190004FF0804344F4006145F6BF5541600022A2
:1011A0009D6201244FF6FF751C200821DD629A61C3
:1011B0005A63DA605A605C611C6030BCFFF730BF74
:1011C0004FF48051C4F2020110B48C694FF4006CEA
:1011D00044F07D028A610368C4F2010CCCF80C3043
:1011E00084684FF44063CCF804404168C4F20103C2
:1011F000CCF80010C2684FF48051DA604469C4F240
:1012000001015C6002694FF4A05C1A608369C4F25A
:10121000010CCB60046A4FF4C0534C60C469C4F243
:1012200001030C60416ACCF80C10C26ACCF80420AF
:10123000816ACCF80010026BDA60816B5960426BF6
:101240001A6010BC704700BFAFF30080AFF300809E
:101250004FF48843C4F20003D86840F08002DA609B
:10126000704700BFAFF30080AFF30080AFF30080A2
:101270004FF49043C4F20003D86840F08002DA6073
:10128000704700BFAFF30080AFF30080AFF3008082
:101290002DE9F041456F0646EB682C681FFA83F88C
:1012A000A4B2E20549D4202383F3118814F02F0F50
:1012B00027D0371D04E02C68A4B214F02F0F20D0E3
:1012C000230712D014F0080118BF8021E00748BF9F
:1012D00041F02001A20748BF41F04001630748BF29
:1012E00041F480713846FFF7F3FBA0066968E2D548
:1012F0003046C9B2FFF774FE2C68A4B214F02F0F69
:10130000DED1002080F3118818F0800F01D0220672
:1013100022D463060FD5202282F31188706CB16C41
:10132000884228D028F040026FF04001EA60002097
:10133000296080F31188BDE8F081202282F31188B2
:101340004FF400710430FFF7C3FB6FF48071296024
:10135000002080F31188A6E7202181F3118806F18F
:101360003000FFF79DFC0028A8BF68600BDB00235E
:1013700083F31188CDE7B36B002BD3D0301D102140
:10138000FFF7A6FBCEE7301D0821FFF7A1FB28F0F1
:10139000C00C4CF04002EA60E9E700BFAFF3008008
:1013A00040F6781008B5C2F20000FFF771FFBDE803
:1013B0000840FFF72DBD00BFAFF30080AFF3008002
:1013C00040F6F01008B5C2F20000FFF761FFBDE87B
:1013D0000840FFF71DBD00BFAFF30080AFF30080F2
:1013E00038B540F67815C2F2000541F25122284680
:1013F0000021C0F6000240F6F014FFF7B9FDC2F27A
:1014000000044FF4884341F27122C4F200032046E5
:101410000021C0F600026B67FFF7AAFD4FF490436E
:10142000C4F20003636738BDAFF30080AFF3008000
:1014300038B541F65034037AC0F60004002918BFCD
:101440000C46012B054620D021684FF45850C0F2BD
:101450006E106B6FB0FBF1F2A088E188B4F808C0A1
:101460009A6040F4045241F0400080B24CF0010117
:1014700042F02C0C18611FFA8CF289B200205961DD
:10148000DA6018601A685B6838BD40F67811C2F2FD
:101490000001884214D040F6F011C2F200018842E7
:1014A000D2D14FF4805EC4F2020EDEF81C30272049
:1014B00043F48022CEF81C200C21FFF7B1FDC3E7D6
:1014C0004FF4805CC4F2020CDCF81C30262043F49C
:1014D0000032CCF81C200C21FFF7A2FDB4E700BFBE
:1014E000FFF7DEBDAFF30080AFF30080AFF3008005
:1014F0000023C4F20103586840F010025A6070479C
:101500002DE9F04F8DB009AC0DF12507029401973C
:101510000546DDF804C0029841F6A033C0EB0C0C80
:10152000CDF81CC04CF6CD4C0027CCF6CC4CC0F608
:1015300000030C4616460397CDF818C00593217892
:1015400081B1671C252911D02B6828469A689047DD
:101550003C46DDF80CC021780CF1010CCDF80CC034
:101560000029EED103980DB0BDE8F08F63782D2BE4
:1015700018BF4FF0000A00F00182302B11BF4FF06E
:1015800020097B784FF0300901373C464FF0000BC3
:1015900007E0327804360BEB8B0017F8013F02EBC3
:1015A000400BA3F13001CAB20134092AF3D92A2B26
:1015B000EFD000212E2B00F0CD81A3F16C02D2F1EF
:1015C000000C4CEB02074C2B08BF47F001071FB182
:1015D00022780AB101341346A3F14400342800F202
:1015E000AE81DFE810F05701AC01AC01AC01AC01F9
:1015F0005701AC01AC01AC01AC01AC01B501AC01CF
:10160000AC01AC01AC01AC01B301AC01AC011801FF
:10161000AC01AC01AC01AC01AC01AC01AC01AC0162
:10162000AC01AC016C005701AC01AC01AC01AC01E8
:101630005701AC01AC01AC01AC01AC01B501AC018E
:10164000AC01AC013500AC01B301AC01AC01180137
:101650003268DDF8148047F6FF77002A18BF9046FD
:1016600098F800300436002908BF3946002B00F0F6
:10167000A28108EB01006FEA080398F8011000EB63
:10168000030908F1010309F001071A4689B18342F1
:101690000FD027B112F8011F013341B909E0517889
:1016A0000133013229B151780133013209B183424A
:1016B000F5D1C8EB030004904FF0200909E033682E
:1016C00007998DF82430049104364FF020090DF16C
:1016D00024080498C0EB0B0121EAE17BBAF1000F6A
:1016E0003DD1CBF1000BBBF1000F38D0A9F1300395
:1016F000D3F1000E98F800A04EEB0307BAF12D0FBE
:1017000014BF002707F00107002F40F03C81286834
:101710006FEA0B0782684946284607F0010A90479E
:101720001BF1010716D0BAF1000F06D02968284630
:101730008B684946984701370CD02868494682682B
:1017400028469047296801378B68284649469847BC
:101750000137F2D10399CBEB01030393BB46049A03
:10176000002A2DDDDDF810E04746286808EB0E0A58
:101770006FEA080317F8011B0AEB03028368284687
:1017800002F001089847574516D0B8F1000F03D072
:101790002B6817F8011B0AE02868B84618F8011BE7
:1017A0008268284690472B68797808F101079A6883
:1017B000284690475745EFD1039A049BD1180391CF
:1017C000BBF1000F3FF4BBAE2F680BF1FF38BA68D6
:1017D00028464746494608F001089047B7B1B8F196
:1017E000000F06D02B6828469A6849469047013F6B
:1017F0000CD02B6849469A68284690472868013FD4
:101800008368494628469847013FF2D103990BEB7C
:101810000107039793E6102732680DF12E00043676
:101820001146B2FBF7FC07FB1C2808F13003392BEB
:10183000C8BF08F13703B1FBF7F18046624600F8F4
:1018400001390029EDD10DF12F0009AFC8EB000CD3
:1018500007EB0C00029FF9434218D20709A90FD5E4
:101860008DF824300DF1250118F8013F08E098F8B3
:10187000017008F101034F705B7808F10208511CF8
:101880000A4602F8013B8242F1D1CDF810C00DF1B9
:1018900024081EE732680436002AA8BF0DF1240888
:1018A000C0F2828008F10B0CCDF81080DDF81880B2
:1018B00061461746CDF800C0A8FB02C3A8FB07C7C6
:1018C000DB0803EB8300A2EB400001393030FF0856
:1018D00008701A46F0D1DDF800C0DDF81080C1EBC9
:1018E0000C0C6FEA080208EB0C07CDF810C007EBF0
:1018F000020C5FEACC73424611D5424602F8010B56
:1019000011F8010F134603F8010BBB420CD091F8FC
:1019100001C0481C82F801C0407802315A1C1346AD
:1019200003F8010BBB42F2D1049A029B08EB0201BF
:10193000C3EB0108CDF810800DF12408C9E6079A21
:101940008DF8243004920DF12408C2E60A2763E7DB
:10195000082761E72046002110F8013B01EB8107D1
:10196000A3F13004E2B2092A044604D92A2B7FF4F9
:1019700024AE3278043602EB4701EDE7A71CA378CA
:101980004FF0010AF9E52B682D2128469F68B847DA
:101990000399DDF810A04A1C0AF1FF3C08F1010888
:1019A0000392CDF810C0B2E62D278DF82470524274
:1019B0000DF1250876E704934FF0200989E600BF72
:1019C0000EB400B582B003AB53F8041B1A46019362
:1019D000FFF796FD02B05DF804EB03B0704700BF5F
:1019E00040F60000C2F20000826941F6B03370B5E3
:1019F000C0F600034FF4A05404259361C4F201041F
:101A00002E4696202661FEF78BFF65619620FEF735
:101A100087FFF6E7AFF30080AFF30080AFF30080FD
:101A200010B582B0FFF724FAFEF7B2FCFFF760FDB5
:101A300040F6F010C2F200000021FFF7C1FA40F6B4
:101A4000682041F6E1130024C2F200004FF4A471B3
:101A50004122C0F600030094FEF74AFF40F6F01062
:101A600041F6B831C0F60001C2F20000FFF7A8FF4E
:101A700041F28830FEF754FFF0E700BFAFF300807B
:101A8000E01B0008B00B0020B00B0020B00B0020C2
:101A9000E01B000800000000000000000000000043
:101AA000E01B000800000000000000000000000033
:101AB000E01B000800000000000000000000000023
:101AC000E01B000800000000000000000000000013
:101AD000E01B000800000000000000000000000003
:101AE000E01B0008000000000000000000000000F3
:101AF000E01B0008000000000000000000000000E3
:101B000069646C6500000000000000000000000037
:101B10006D61696E00168018040244080C101418D8
:101B2000001C1D1E0000000000000000000000005E
:101B3000110F0008F10E0008510F0008310F0008C6
:101B4000410F0008210F0008010F0008E10E0008F6
:101B500000C2010000000040000000000000000082
:101B6000FFFFFFFF844BB3B4B8848888FFFFFFFFFB
:101B7000888888888888B3B4FFFCFFFF88888888B5
:101B8000334B8888FFFFFFFF4483888888888888D4
:101B9000FFFFFFFF88888888888888880000000009
:101BA000286E756C6C290000000000000000000029
:101BB000626C696E6B65720057616974696E67204B
:101BC000666F7220424420636F6E6669726D617445
:0C1BD000696F6E200A0D0000313000002B
:04000005080001816D
:00000001FF
